:020000040000FA
:060000007AEF07F0120088
:020006000000F8
:0800080007EF00F01200DACF4F
:10001000E4FFE2CFDAFFE9CFE4FFEACFE4FFF6CF77
:10002000E4FFF7CFE4FFF5CFE4FFF3CFE4FFF4CF35
:10003000E4FFFACFE4FF00EE00F0140EE80403E35F
:10004000EECFE4FFFBD700EE18F0040EE80403E364
:10005000EECFE4FFFBD7E652F2A407D1F29AF29476
:100060000001835101E08307845101E08407F00E11
:10007000D76E7C0ED66E8051090A01E1ECD0010AE0
:1000800001E1E4D00F0A01E1CDD0010A01E1BAD0CB
:10009000030A01E1B4D0010A01E19ED0070A01E19F
:1000A00092D0010A01E193D0030A01E0DDD0FC0EF9
:1000B000D76EFA0ED66E817881510D0A6FE0010A73
:1000C00068E0070A5BE0010A54E0030A4CE0010A19
:1000D00044E00F0A39E0010A30E0030A27E0010A90
:1000E0001DE0070A16E0010A0EE0030A08E0010A13
:1000F00063E1872B862B1E0E875D5EE14DD087075F
:1001000087515AE149D0872B86071E0E875D54E13F
:1001100043D0872B640E875D4FE13ED0872B030EC3
:10012000865F690E875D48E1876B36D0872B060EA8
:1001300086271E0E875D40E12FD0872B060E865F37
:100140003E0E875D39E128D0872B030E8627470EA8
:10015000875D32E1812B876B2FD0872B590E875D0E
:100160002BE1876B19D0872B862B370E875D24E117
:1001700013D0872B6E0E875D1FE10ED0872B86076D
:100180008751146E156AA50E141816E1155014E166
:1001900003D08707875110E1812B0ED0872B875121
:1001A000146E156ACA0E141807E1155005E1816B2B
:1001B00081C087F0320E866F86C0E6FFADD8E5526B
:1001C00086C083FF51D0D4C0D7FFD5C0D6FF29EC5D
:1001D00006F0836E817848D0F6EC05F0E850146E96
:1001E000156A8B51166E176A1650145CD76F17502C
:1001F0001558D86F800ED727000ED82324D03DEC99
:1002000005F01BD03DEC05F0BBEC05F000018A5178
:100210008A25146E156A0850145CD76F095015585A
:10022000D86F11D08BC08CF0F6EC05F08C518A257C
:10023000D76FD86B000ED823020EBBEC05F008C0B8
:10024000D7F009C0D8F0D7C083FF0ED029EC06F054
:10025000010E9F6F09D0ED0ED76E440ED66EF6ECF0
:1002600005F08174010EA06FF28AF2A218D0F29804
:10027000F2920001835111E18051000803E3090E5D
:10028000806F01D08007090E805D03E1010EE66EEC
:1002900001D0E66AC9EC05F0836FF288DDD6F0A0E4
:1002A00017D0F096F0900001845110E1090E805DA6
:1002B00002E3806B01D0802B090E805D03E1010E0B
:1002C000E66E01D0E66AC9EC05F0846FF086C4D60C
:1002D000E55200EE1BF0040EE80403E3E5CFEDFF6A
:1002E000FBD700EE13F0140EE80403E3E5CFEDFFB7
:1002F000FBD7E5CFFAFFE5CFF4FFE5CFF3FFE5CF7E
:10030000F5FFE5CFF7FFE5CFF6FFE5CFEAFFE5CF55
:10031000E9FFE5CFDAFF11008CEC05F0010E9FDB61
:10032000FE0EDBCFE6FF0BD8E55291EF05F0E66A53
:1003300006D8E55280C0E6FF02D8E5521200ECDB99
:100340009EA8FED7FE0EDB50AD6E9EA8FED7E9D369
:100350000001D60501E11200FE0E81DB010E2FEF38
:1003600005F0DADB0001D60509E07C0E78DBFE0E35
:10037000DB5002E09D0E01D0810E71DBD2D3CCDBCD
:100380000001D60508E0FE0E6ADBFE0EDBCF18F09A
:10039000800E182464DBC5D3BFDBE6520001D6050E
:1003A00016E0DF6AFC0EDB50DF5C11E2DF50E76E27
:1003B000FD0EDBCFF6FFFE0EDBCFF7FFE750F62694
:1003C000000EF7220800F5504ADBDF2AEBD7E55292
:1003D000A8D312EC06F001E181D0FC0EDBCFE6FFE2
:1003E000CEDFE552B1DB19340BE218500F08270EAF
:1003F000195406E2040EE66E3F0EE66E0D0E0ED0A8
:10040000A3DBD880195004E7F10E185CD80E1958F8
:1004100009E2050EE66E390EE66E0D0E24EC06F0CE
:10042000E5525BD091DB0001800E191412E00868E0
:100430000968FD0EDBCF0DF0FE0EDBCF0EF0C8EC31
:1004400006F0FD0E06C0DBFFFE0E07C0DBFF2D0E23
:1004500001D02B0E04DBE80E186E030E196E23DBA1
:10046000060E08C0DBFF070E09C0DBFFD950060FE0
:10047000E96EDACFEAFFEE50ED1006E0060EDBCFB4
:1004800018F0070E6FDBEBDA66DBE80E086E030E82
:10049000096E060EDBCF0DF0070EE5DA81DB640E88
:1004A000186E196A00DB040E08C0DBFF050E09C0D8
:1004B000DBFFBEDBD4DA4FDB9DDB72DB0A0E186E8E
:1004C000196AF1DA020E08C0DBFF030E09C0DBFF78
:1004D0009ADB41DB79DBE66E32DFE552080EE15C48
:1004E00002E2E16AE552E16E1CD39CDB29E0FD0EDD
:1004F000DBCFE6FF44DFE552640E1BDB040F58DB65
:10050000D950040FE96EDACFEAFFEE50ED1002E0A9
:100510008FDB01D0140EA3DAFE0EDB501A6E1B6ABD
:1005200069DB196EFE0E18C0DBFF0A0E02DB020F3C
:100530003FDB69DBFE0EDB501A6E1B6A45DB8FDA90
:10054000080EE15C02E2E16AE552E16EEAD20001E6
:10055000D65101E11200010EAF6EF40EE66E010EEF
:10056000E66E05DB370E7BDA370E79DA370E77DA8F
:10057000640EE66EE66AFBDA080EE66E2E0EE66E96
:100580000D0ED3DA640EE66EE66AF1DA190EAF6E7E
:100590001200800E946E190EAF6EAC8AAC98AB88C8
:1005A000AB8EAC841200B8DA9268090EC06E0A0EE7
:1005B000C16EFE0EDB50040DF328C26E9D9C9E9C06
:1005C000B0D2AADAE652D950FD0FE96EFF0EDA205A
:1005D000EA6E000ED880EE54000EED540CE2DF6A95
:1005E000520EDF5C02E2DF2AFBD7FD0EDB06FE0EB9
:1005F000EAE2DB06E8D7E55294D20001010ED66F9D
:10060000846B84C083F084C087F084C085F084C08C
:1006100081F084C080F0E36BE46BA06BA0C09FF01E
:10062000A0C0A2F0320EE16FE26B010E826F320EBB
:10063000866F100EA46F110EA56F120EA66F130E0B
:10064000A76F140EA86F190EA96F1E0EAA6F320E97
:10065000AB6F460EAC6F580EAD6F6C0EAE6F7E0E6C
:10066000AF6F910EB06FAD0EB16FC00EB26FE40EF2
:10067000B36F0B0EB46F1A0EB56F260EB66F320E37
:10068000B76F3C0EB86F630EB96F7D0EBA6FB10EC7
:10069000BB6FC80EBC6FD40EBD6FDC0EBE6FE10E1B
:1006A000BF6FE50EC06FEA0EC16FEC0EC26FEF0EAA
:1006B000C36FDB0EC46F370EC56FFB0EC66F670EC0
:1006C000C76FAF0EC86FBF0EC96FC90ECA6FDF0EFE
:1006D000CB6F310ECC6F970ECD6F7C0ECE6FF20EBE
:1006E000CF6FF40ED06F4B0ED16F770ED26FB80E66
:1006F000D36FF00ED46F7C0ED56F030E936E956A98
:10070000836AE66A50DFE55244DF880ED56EB00E8C
:10071000F26EF28AF19CF19AF288F0868FDA010E7D
:10072000E66E1FDEE55214DE0E0EE66E1F0EE66E5E
:100730000D0EFBD9400EE66E22DEE5520F0EE66E80
:100740000F0EE66E0D0EF1D979DA02DE080EE66EB6
:10075000060EE66E0D0E78DAE552E5520001825182
:1007600065E0826B805103E0816A81CF85F0D60518
:1007700002E1DDDD5BD0080EE66E80C0E6FF20DA28
:10078000400EE66EFCDDE55200018051090A48E0AA
:10079000010A40E00F0A38E0010A30E0030A28E0CD
:1007A000010A20E0070A18E0010A10E0030A08E045
:1007B000010A3CE1100EE66EF50EE66E0C0E35D029
:1007C000100EE66EE40EE66E0C0E2FD0100EE66EE6
:1007D000D30EE66E0C0E29D0100EE66EC20EE66E3B
:1007E0000C0E23D0100EE66EB10EE66E0C0E1DD070
:1007F000100EE66EA00EE66E0C0E17D0100EE66E12
:100800008F0EE66E0C0E11D0100EE66E7E0EE66EAA
:100810000C0E0BD0100EE66E6D0EE66E0C0E05D0B3
:10082000100EE66E5C0EE66E0C0E7FD90001805154
:10083000090A01E18AD0010A43E00B0A0CE0030A2D
:100840008DE1852BF00E8515816E85C083FF640ECA
:10085000E66EE66A33D0F29A020EE66EA4DEE55248
:100860005AEC07F00001876FE66A9DDEE552000151
:1008700087390F0B876FE850EA6AA40FE96E000E04
:10088000EA22EFCFA3F04A0EE66EA3C0E6FF98D9A6
:1008900000018751EA6AC40FE96E000EEA22EFCF29
:1008A000D5F08751EA6AB40FE96E000EEA22EFCF65
:1008B000D4F0F28AE80EE66E030EE66E82DE4CD7C6
:1008C0009F5101E14BD79F6BF29A080E886F8851B8
:1008D00000080BE2880557D9EF50E66E885153D9CE
:1008E000E552E750EF6E8807F2D78AC08DF0886B2B
:1008F000090E885D05E2885146D98CD9882BF8D736
:10090000886B050E885D1DE28829896F090E895D57
:1009100016E28851D4D8EFCF18F08951D0D8EF50D3
:10092000185C0BE28851CBD8EFCFA3F08951C7D820
:1009300071D98951C4D8A3C0EFFF892BE7D7882B81
:10094000E0D79AC083FFF28A09D7A0516CE0F29AEF
:10095000A06BDBC0DDF0DCC0DEF0D9C0DBF0DAC0BC
:10096000DCF08A51186E196A8B511A6E1B6A1A5084
:10097000185CD96F1B501958DA6FE32B000EE42373
:10098000DF6BE06BDA351AE2D9510008000EDA5558
:1009900015E2DC3513E2DB510008000EDC550EE2F7
:1009A000DE350CE2DD510008000EDE5507E2A1D86D
:1009B000D89019321832E804FBE187D8800EDA1596
:1009C00017E0800EDC1514E0800EDE1511E0D96D05
:1009D000DA1F000EDA23DB6DDC1FDC23DD6DDE1F8A
:1009E000DE2387D8D89019321832E804FBE16DD89D
:1009F000A15107E0A12B280EA15D12E1A16B819608
:100A00000FD0E251E019E8AE02D0E03504D0DF515A
:100A1000E15DE051E25904E2010EA16F8186A26F0F
:100A2000DFC083FFF28AA25101E198D6E00E086E82
:100A30002E0E096EE3C00DF0E4C00EF0A2EC06F03D
:100A400008C0E5F009C0E6F00001E36BE46B470E77
:100A5000E66E08C0E6FFB4D80001A26B7FD6E66E52
:100A60006EDCE5521200DBCF0EF0C8EC06F006504B
:100A70001A5C186E07501B5812008BC08CF0B6D849
:100A80008B51166E176A8B518A25156A15361624F6
:100A9000146E175015228C511424D76F000E152098
:100AA000D86F040E1200FD0EDBCF08F0FE0EDBCF78
:100AB00009F018C00DF019C00EF0A2EF06F0EA6AB6
:100AC000960FE96E000EEA22120018C0DFF019C07E
:100AD000E0F00001DD51E003F3CFE0F0DE51DF0391
:100AE000F350E027DD51DF03F3CFDFF0F450E027D0
:100AF0001200DB51D903F3CFDFF0F4CFE0F0DA03DB
:100B0000F350E027DC51D903F350E027DFC018F0A1
:100B1000E0C019F0030E1200D9CFE6FFE1CFD9FFF4
:100B20001200E552E7CFD9FF12008ED8E552E55208
:100B30001200186E0E6EFE0EDBCF09F088EC07F087
:100B40000950E66ED9501200FD0EDBCF18F0FE0EF4
:100B5000DBCF19F01200FD0EDBCF1AF0FE0EDBCF5B
:100B60001BF01200DBCF19F0300E1824120029DD23
:100B7000E552E55212000D6E0E6AD7C008F0D8C0DB
:100B800009F0A2EF06F0EA6A8D0FE96E000EEA2284
:100B9000120009DDE5520001010E826F0A0E1200FB
:100BA000196EFD0E18C0DBFFFE0E19C0DBFF120030
:100BB000E96EDACFEAFFE552E750EE6EED6A120019
:100BC00094DCE552E55212000A0E086E096A020E24
:100BD000DBCF0DF0030E47DF18C0DEFFDD6EDECF8A
:100BE00018F0DDCF19F0300E182412008AC08BF0F7
:100BF00029EF06F0640E086E096A040EDBCF0DF0D3
:100C0000050E33EF05F0020EDBCF18F0030EAADF5E
:100C10002FEF05F0EF50E66E885151DFE552E750B7
:100C2000EF6E120079DF080EE1260001D6051200F2
:100C3000040EDBCF18F0050EB2EF05F0B80EE66E2D
:100C40000B0EE66EB7EF05F0E66ECCEC01F0E55268
:0C0C500012005AEC07F000018A6F12003D
:040C5C004852203D9D
:100C60002020202020202062706D2020004D65640F
:100C700069616E2066696C746572202020003630D0
:100C8000487A206E6F7463682066696C74720048DD
:100C9000692D6672657120656E68616E63652000FE
:100CA0004C6F772D706173732066696C7465722068
:100CB0000044657269766174697665202020202081
:100CC00020004563686F204020667320202020208C
:100CD000487A004563686F2028412F44202D204426
:100CE0002F4129004543472073696D756C61746914
:100CF0006F6E20200042696E61727920636F756E9D
:100D000074657220200046756E6374696F6E0020F2
:100D100042696F6D6561737572656D656E740020F3
:100D200020424D45203336312044656D6F00552CEF
:100D3000393630302C4E002400556E646572004FF9
:040D40007665720062
:0C0D4400006A0EAEABEF06F00D6C0E1E48
:100D5000E86A0E22001E09AEB3EF06F0086C091E09
:100D6000E86A0922001E44EC07F009BEC3EF06F052
:100D700000AE000C086C091EE86A0922046C051E0E
:100D8000E86A0522000C00BEBAEF06F00188FF0CED
:100D900009C013F008C012F008500D02F4CF07F09C
:100DA000F3CF06F009500E02F4CF09F0F3CF08F0AC
:100DB0000D02F3500726F4500822E86A0922125067
:100DC0000E02F3500726F4500822E86A09220EAEFC
:100DD000EEEF06F01250085E1350095A13AE000CE5
:0A0DE0000D50085E0E50095A000C79
:060DEA00060EF66E000E7D
:100DF000F76E000EF86E00010900F550EC6F090067
:100E0000F550ED6F03E1EC6701D03DD00900F550DE
:100E1000E76F0900F550E86F0900F550E96F090028
:100E20000900F550E96E0900F550EA6E0900090065
:100E30000900F550EA6F0900F550EB6F0900090051
:100E4000F6CFEEF0F7CFEFF0F8CFF0F0E7C0F6FF17
:100E5000E8C0F7FFE9C0F8FF0001EA5302E1EB53F5
:100E600007E00900F550EE6EEA07F8E2EB07F9D764
:100E7000EEC0F6FFEFC0F7FFF0C0F8FF0001EC078F
:080E8000000EED5BBFD712006C
:080E8800056A046A100EE76E12
:100E9000D89008360936043605360D50045C0E50DD
:100EA000055805E30D50045E0E50055A082AE72E3A
:040EB000F0D7120065
:0C0EB400D9CFE6FFE1CFD9FFE652C282A1
:100EC0009EACFED7C450DF6EDF50E552E552E7CF4F
:040ED000D9FF120034
:0C0ED400800EF36E00EE00F00F0E01D84F
:100EE0001200EA6002D0EE6AFCD7F350E96012000B
:040EF000EE6AFCD7D3
:0C0EF4001EEE00F02EEE00F0F86A019CEB
:100F0000F5EC06F096EC07F0FDEC02F0FBD71200D2
:100F1000056A080EE76ED890093605360E50055C56
:0C0F200002E3056E092AE72EF7D7120045
:020F2C001200B1
:020000040030CA
:0100010001FD
:0100020013EA
:010003000EEE
:010005008179
:010006008079
:00000001FF
